:10129B00044C00000000040800000000044800009B
:1012AB0000001420000000000000000000000000FF
:1012BB00000000000000000014503D1209EE3E76C5
:1012CB00D3313EE4AA113E76D3313D1209EE1434EC
:1012DB00B8A3DA43BA0A3FDF3F7FC505BA0A3FDF3F
:1012EB00B8A3DA43140CB9DD3BDBBB3AB1413F7E0B
:1012FB00C227BB3AB141B9DD3BDB146400000000EF
:10130B0000000000000000000000000000000000D2
:04131C007F027E00CE
:10132000D3EF9400EE648094804007EF1F70F11EAD
:0213300080EE4D
:011332002298
:03000B00021333AA
:03133300B2A33230
:10080000D2A77580FFC2A4C2A5C2A6758922758C25
:10081000FD75A882D28C75B0FF7590FF85676B85DA
:10082000666A856569856468856B6F856A6E8569AA
:100830006D85686C856F73856E72856D71856C7062
:10084000857377857276857175857074D2A412135D
:100850001CD2A67F017E00121320C2A47F017E005D
:10086000121320C2A620A7FD30A7FDD2A5AC80E4BC
:1008700012114C8F678E668D658C6420B34430B442
:1008800041C2A2C2A1C2A012131C20B00830B105FF
:1008900030B202805420B10930B00630B2030209F0
:1008A0009920B20930B10630B003020A4920B003E2
:1008B000020D3420B103020D3420B203020D3402C4
:1008C0000AF930B403020DE720B303020DE7C2A218
:1008D000C2A1D2A012131C30B00302098720B103B9
:1008E00002098720B203020987AC80E412114CABE5
:1008F00063AA62A961A86012103CC004C005C006CA
:10090000C007AF73AE72AD71AC70AB5FAA5EA95D8C
:10091000A85C12103CD003D002D001D000120F4BC3
:10092000C004C005C006C007AF6FAE6EAD6DAC6C45
:10093000AB5BAA5AA959A85812103CD003D002D0D8
:1009400001D000120F4BC004C005C006C007AF6B3A
:10095000AE6AAD69AC68AB57AA56A955A854121037
:100960003CD003D002D001D000120F4BC004C00510
:10097000C006C007AF67AE66AD65AC64AB53AA52A4
:10098000A951A850020DCF30B103020A3720B0039D
:10099000020A3720B203020A37AC80E412114CABD2
:1009A00047AA46A945A84412103CC004C005C00689
:1009B000C007AF73AE72AD71AC70AB43AA42A94130
:1009C000A84012103CD003D002D001D000120F4B2F
:1009D000C004C005C006C007AF6FAE6EAD6DAC6C95
:1009E000AB3FAA3EA93DA83C12103CD003D002D098
:1009F00001D000120F4BC004C005C006C007AF6B8A
:100A0000AE6AAD69AC68AB3BAA3AA939A8381210F6
:100A10003CD003D002D001D000120F4BC004C0055F
:100A2000C006C007AF67AE66AD65AC64AB37AA362B
:100A3000A935A834020DCF30B203020AE720B10372
:100A4000020AE720B003020AE7AC80E412114CABC3
:100A50001FAA1EA91DA81C12103CC004C005C00678
:100A6000C007AF73AE72AD71AC70AB1BAA1AA919F7
:100A7000A81812103CD003D002D001D000120F4BA6
:100A8000C004C005C006C007AF6FAE6EAD6DAC6CE4
:100A9000AB17AA16A915A81412103CD003D002D087
:100AA00001D000120F4BC004C005C006C007AF6BD9
:100AB000AE6AAD69AC68AB13AA12A911A8101210E6
:100AC0003CD003D002D001D000120F4BC004C005AF
:100AD000C006C007AF67AE66AD65AC64AB0FAA0ECB
:100AE000A90DA80C020DCF20B003020D3420B103D4
:100AF000020D3420B203020D34AC80E412114CAB71
:100B000063AA62A961A86012103CC004C005C006B7
:100B1000C007AF73AE72AD71AC70AB5FAA5EA95D7A
:100B2000A85C12103CD003D002D001D000120F4BB1
:100B3000C004C005C006C007AF6FAE6EAD6DAC6C33
:100B4000AB5BAA5AA959A85812103CD003D002D0C6
:100B500001D000120F4BC004C005C006C007AF6B28
:100B6000AE6AAD69AC68AB57AA56A955A854121025
:100B70003CD003D002D001D000120F4BC004C005FE
:100B8000C006C007AF67AE66AD65AC64AB53AA5292
:100B9000A951A85012103CD003D002D001D00012AD
:100BA0000F4B8F4F8E4E8D4D8C4CAC80E412114C00
:100BB000AB47AA46A945A84412103CC004C005C0D2
:100BC00006C007AF73AE72AD71AC70AB43AA42A959
:100BD00041A84012103CD003D002D001D000120F27
:100BE0004BC004C005C006C007AF6FAE6EAD6DACA4
:100BF0006CAB3FAA3EA93DA83C12103CD003D002EA
:100C0000D001D000120F4BC004C005C006C007AF12
:100C10006BAE6AAD69AC68AB3BAA3AA939A8381289
:100C2000103CD003D002D001D000120F4BC004C042
:100C300005C006C007AF67AE66AD65AC64AB37AA4A
:100C400036A935A83412103CD003D002D001D00010
:100C5000120F4B8F0B8E0A8D098C08AC80E4121199
:100C60004CAB1FAA1EA91DA81C12103CC004C00535
:100C7000C006C007AF73AE72AD71AC70AB1BAA1AE1
:100C8000A919A81812103CD003D002D001D000122C
:100C90000F4BC004C005C006C007AF6FAE6EAD6D90
:100CA000AC6CAB17AA16A915A81412103CD003D02F
:100CB00002D001D000120F4BC004C005C006C0070F
:100CC000AF6BAE6AAD69AC68AB13AA12A911A810DC
:100CD00012103CD003D002D001D000120F4BC00440
:100CE000C005C006C007AF67AE66AD65AC64AB0FAC
:100CF000AA0EA90DA80C12103CD003D002D001D02E
:100D000000120F4B8F4B8E4A8D498C48AF0BAE0AA9
:100D1000AD09AC08AB4FAA4EA94DA84C120F4BAB76
:100D20004BAA4AA949A848120F4B1211808F90C2B2
:100D3000A502081CAC80E412114CAB33AA32A931D5
:100D4000A83012103CC004C005C006C007AF73AE87
:100D500072AD71AC70AB2FAA2EA92DA82C12103C2D
:100D6000D003D002D001D000120F4BC004C005C088
:100D700006C007AF6FAE6EAD6DAC6CAB2BAA2AA9E7
:100D800029A82812103CD003D002D001D000120FA5
:100D90004BC004C005C006C007AF6BAE6AAD69ACFE
:100DA00068AB27AA26A925A82412103CD003D0029C
:100DB000D001D000120F4BC004C005C006C007AF61
:100DC00067AE66AD65AC64AB23AA22A921A8201248
:100DD000103CD003D002D001D000120F4B12118072
:100DE0008F90C2A502081C20B40330B30C20B403BA
:100DF00002081C20B30302081CAC80E412114CABA7
:100E000043AA42A941A84012103CC004C005C00634
:100E1000C007AF83AE82AD81AC80AB3FAA3EA93D97
:100E2000A83C12103CD003D002D001D000120F4BCE
:100E3000C004C005C006C007AF7FAE7EAD7DAC7CF0
:100E4000AB3BAA3AA939A83812103CD003D002D043
:100E500001D000120F4BC004C005C006C007AF7B15
:100E6000AE7AAD79AC78AB37AA36A935A834121072
:100E70003CD003D002D001D000120F4BC004C005FB
:100E8000C006C007AF77AE76AD75AC74AB33AA328F
:100E9000A931A83012103CD003D002D001D00012EA
:100EA0000F4BC004C005C006C007AF73AE72AD7172
:100EB000AC70AB2FAA2EA92DA82C12103CD003D0B9
:100EC00002D001D000120F4BC004C005C006C007FD
:100ED000AF6FAE6EAD6DAC6CAB2BAA2AA929A8285A
:100EE00012103CD003D002D001D000120F4BC0042E
:100EF000C005C006C007AF6BAE6AAD69AC68AB2772
:100F0000AA26A925A82412103CD003D002D001D0D3
:100F100000120F4BC004C005C006C007AF67AE6625
:100F2000AD65AC64AB23AA22A921A82012103CD045
:100F300003D002D001D000120F4B1211808F90C24B
:040F4000A502081CE2
:100F44000211ECE86480F8E933E83360110460F0DE
:100F5400ED33EC337009E8FCE9FDEAFEEBFF220413
:100F640060DED3EB9FEA9EE99DE8C2E78CF0C2F70E
:100F740095F0400CE8CCF8E9CDF9EACEFAEBCFFBDA
:100F84001211B785D0F05804700320D5B3E804706B
:100F9400075002B2D50211F692D5EC0460F7E4CC06
:100FA400C0E0C398F8603B94186008400DD0E0FBA3
:100FB4000211CEE4FBFAC9FC8028E830E406E4C957
:100FC400FBE4CAFCE830E305E4C9CACBFCE85407F7
:100FD4006010F8C3E913F9EA13FAEB13FBEC13FC02
:100FE400D8F130F52FC3E49CFCEF9BFFEE9AFEEDA5
:100FF40099FDD0E0FBEF4E4D4C701222DB03021141
:10100400F3EC2CFCEF33FFEE33FEED33FDED30E774
:10101400EB0211CEEF2BFFEE3AFEED39FDD0E0FBF3
:1010240050130BBB00030211F6ED13FDEE13FEEF9C
:0810340013FFEC13FC0211CEC6
:10103C00EC4D6011E8497017ED33EC3304600DE4AE
:10104C00FCFFFEFD22E933E8330470F80211EC12C8
:10105C0011B758046009E4CC2481500628500902C9
:10106C0011F62840030211F3C0E0EB4A7044B9803A
:10107C0006D0E0FB0211E2EF4E701CBD8008EBFFC6
:10108C00EAFEE9FD80EBE98DF0A4FEE5F002112506
:10109C00E9CDF9EAFEEBFFEF89F0A4FCE5F0CE898F
:1010AC00F0A42EFFE435F0CD89F0A42DFEE435F04C
:1010BC008067EF4E7005BD80D780C3EF8BF0A4AC7A
:1010CC00F0EE8BF0A42CFCE435F0F8EF8AF0A42CB5
:1010DC00E5F038FCE433CB8DF0A42CFCE5F03BF8C8
:1010EC00EE8AF0A42CFCE5F038F8E433CF89F0A4B8
:1010FC002CFCE5F038CF3400CE89F0A42FFFE5F0BE
:10110C003EFEE433C98DF0A42EFEE5F039CD8AF015
:10111C00A42FFFE5F03EFEE43DFD33D0E0FB50078D
:10112C000BBB000F0211F6EC2CFCEF33FFEE33FE81
:06113C00ED33FD0211CEAF
:1011420075F020800E75F010800575F0087D007E28
:10115200007F003392D530D503121201EC334010D8
:10116200EF33FFEE33FEED33FDEC33FCD5F0ED2231
:0E117200E5F0247EA2D513CC92E7CDCEFF226D
:10118000EDD2E7CD33EC3392D524814006E4FFFE67
:10119000FDFC22FCE4CFCECDCC24E0501174FF80C6
:1011A000EDC3CC13CCCD13CDCE13CECF13CF047063
:0711B000F030D5DE02120150
:1011B700E9D2E7C933E833F892D5EDD2E7CD33EC7E
:0711C70033FC5002B2D522F7
:1011CE00EC30E7100FBF000C0EBE00080DBD000482
:1011DE000BEB6014A2D5EB13FCED92E7FD2274FF2E
:1011EE00FCFDFEFF22E480F8A2D574FF13FC7D8087
:0311FE00E480EF9B
:0300000002120FDA
:0C120F00787FE4F6D8FD75817702125656
:0E120100C3E49FFFE49EFEE49DFDE49CFC22FE
:10121B00020800E493A3F8E493A34003F68001F2E1
:10122B0008DFF48029E493A3F85407240CC8C333D4
:10123B00C4540F4420C8834004F456800146F6DFA3
:10124B00E4800B010204081020408090129BE47E86
:10125B00019360BCA3FF543F30E509541FFEE49398
:10126B00A360010ECF54C025E060A840B8E493A35F
:10127B00FAE493A3F8E493A3C8C582C8CAC583CA8A
:10128B00F0A3C8C582C8CAC583CADFE9DEE780BE42
:01131B0000D1
:00000001FF
